:100000000C942A000C94AE050C94DB050C940806A5
:100010000C9447000C9447000C94ED070C941A08BC
:100020000C9424080C942E080C949C070C94C9077B
:100030000C9447000C9447000C9447000C94470024
:100040000C940D030C9447000C9447000C9447004B
:100050000C94470011241FBECFE5D8E0DEBFCDBF12
:1000600010E0A0E6B0E0EEE0F0E202C005900D92F4
:10007000A43CB107D9F720E0A4ECB0E001C01D9288
:10008000AE3EB207E1F70E94730D0C9405100C947C
:10009000000041E067E083E00C94340440E067E056
:1000A00083E00C94340440E066E083E00C94340474
:1000B00041E065E083E00C94340441E067E081E0D6
:1000C0000C94340441E065E081E00C94340466E073
:1000D00083E00C9465048091C400811110C070E02D
:1000E00060E082EF90E00E942C0781E08093C400E2
:1000F0001092C9001092C8008093C50002C08130E0
:10010000D9F308958091C40081116BC04091C7005C
:10011000411140C0E091C800F091C9009F012F5FDC
:100120003F4F3093C9002093C800253C89E0380731
:1001300028F482E08093C6000C945800C90162E361
:1001400070E00E94780D892B71F4293883E138071B
:1001500050F440E065E083E00E94340481E0809345
:10016000C6000C946700E858F341E33CF94020F4E2
:100170001092C6000C9449002C343D4191F581E069
:100180008093C70084EC99E09093C9008093C800E5
:100190000C944E00413029F52091C8003091C900DF
:1001A000215031093093C9002093C800C90162E38E
:1001B00070E00E94780D892B49F42115310541F03A
:1001C000253C394070F44093C600CBCF232B49F433
:1001D0000E9453001092C7001092C9001092C800EC
:1001E000A8CF0895E091C800F091C9009F012F5F4A
:1001F0003F4F3093C9002093C8008091C4008130E4
:1002000009F08EC08091C60081114AC08091C5005E
:10021000813009F085C0253C89E0380748F40E9408
:1002200049000E945D0040E065E081E00C943404E8
:10023000C90162E370E00E94780D892B71F42838BF
:1002400083E1380750F40E944E000E945D000E9436
:10025000670066E081E00C9465042838334109F0BA
:100260005FC00E9453000E94580040E067E081E0B8
:100270000E94340440E066E081E00E9434040E9461
:1002800062001092C5001092C40070E060E082E845
:1002900090E00E942C071092C9001092C8000895A7
:1002A00081508230E8F58091C5008130C9F5C901DF
:1002B00062E370E00E94780D892B61F4253C89E0AF
:1002C0003807E8F40E94670066E081E00E94650458
:1002D0000C946200E45CF940E33CF940E8F440E04F
:1002E00065E083E00E9434040E9453000E944900AC
:1002F00040E065E081E00E9434040C945D00283801
:1003000083E1380760F3283883E1380749F02C345B
:100310008DE1380708F497CF2C343D4109F4A1CF83
:10032000089588E990E00E94460D0E943B0680E611
:1003300090E00E94AF0450E040E06BE670E080E0A7
:100340000E94960541E067E083E00E94030440E0DC
:1003500067E083E00E94340441E066E083E00E94AD
:10036000030440E066E083E00E94340441E065E07D
:1003700083E00E94030440E065E083E00E943404CF
:1003800041E065E081E00E94030440E065E081E037
:100390000E94340441E066E081E00E94030440E0F2
:1003A00066E081E00E94340441E067E081E00E9461
:1003B000030440E067E081E00E9434040E944106AB
:1003C0000E94350690E080E0089570E060E082E8E9
:1003D00090E00E942C0790E080E00895089587B196
:1003E0008F73806287B986B1876086B990E080E0BC
:1003F00008959091CA00911127C091E09093CA008E
:100400008830F8F497B1907E892B87B981E090E02D
:1004100026B1206526B924B122952695269523700C
:1004200030E0FB013183208345B1F4E04F9FA00110
:100430001124242B352BFB01318320831092CA0019
:10044000089583E090E0E4CF85E090E008959091F6
:10045000CA0091111EC08830F8F441155105F9F019
:1004600091E09093CA007093D1006093D0005093B4
:10047000D5004093D4003093D3002093D20097B19D
:10048000907E892B87B986B1886486B981E090E037
:10049000089585E090E0089583E090E0089582E07B
:1004A00090E00895FC018091CA00811127C081E08D
:1004B0008093CA008093CE0082E090E04115510500
:1004C00011F090E080E070817830D8F45093D5003E
:1004D0004093D4003093D3002093D2006093CD009A
:1004E000F093CC00E093CB0027B1207E27B9308178
:1004F000232B27B926B1286426B9089590E080E01F
:10050000089583E090E00895369A90E080E00895A1
:1005100086B1982F92959F7009F4FFCF806186B9BC
:1005200090E080E0089525B1FC01208390E080E018
:10053000089524B1229526952695237030E0FC017C
:100540003183208345B1F4E04F9FA0011124242B77
:10055000352BFC013183208390E080E008950097E3
:1005600059F09093D5008093D4007093D30060939A
:10057000D20090E080E0089582E090E00895379AFC
:1005800090E080E00895379890E080E00895339AF5
:1005900090E080E00895339890E080E008958830FE
:1005A00038F497B1907E892B87B981E090E0089567
:1005B00083E090E00895359A883040F5E82FF0E028
:1005C000EB51FD4F90B70C94AB0DED02F202F5022A
:1005D000F802FB02FE02010304039F7190BF90E04A
:1005E00080E008959F739062F9CF9F759064F6CF75
:1005F0009F779066F3CF9F799068F0CF9F7B906A4A
:10060000EDCF9F7D906CEACF906EE8CF83E090E0D5
:100610000895359890E080E008951F920F920FB6EC
:100620000F9211242F933F934F935F936F937F9378
:100630008F939F93AF93BF93EF93FF938091CE00DF
:10064000813009F057C08091CF009091CD0089177B
:10065000E0F52091CB003091CC0093E0F901899F27
:10066000E00DF11D11240180F281E02D45B14083A0
:100670008F5F8093CF00899F200D311D1124F901D8
:100680008081883088F487B1807E87B92091CF003F
:10069000E091CB00F091CC00299FE00DF11D1124D9
:1006A0009081892B87B9369AFF91EF91BF91AF91D5
:1006B0009F918F917F916F915F914F913F912F917A
:1006C0000F900FBE0F901F9018958913EDCFE091FA
:1006D000D400F091D500309739F38091D2009091F9
:1006E000D3000995349A1092CA001092CF0010924C
:1006F000CE00DACFE091D400F091D5003097A1F28E
:1007000085B1A091D000B091D1008C938091D2009E
:100710009091D3000995349A1092CA00C5CF8FEFFB
:100720008ABB9CEF97BB84BB81BB1BBA18BA15BAB6
:1007300012BA81E090E00895843080F4823051F064
:10074000833051F0813021F06ABB81E090E0089560
:1007500067BBFBCF64BBF9CF61BBF7CF83E090E011
:100760000895843080F4823051F0833051F081302C
:1007700021F06BBB81E090E0089568BBFBCF65BBC7
:10078000F9CF62BBF7CF83E090E008958430C0F4E6
:10079000823071F0833081F0813031F08BB38095FD
:1007A0008BBB81E090E0089588B3809588BBF9CF3A
:1007B00085B3809585BBF5CF82B3809582BBF1CFA1
:1007C00083E090E00895FB018430B8F43097C1F0E5
:1007D000823059F0833059F0813029F089B3808319
:1007E00081E090E0089586B3FACF83B3F8CF80B369
:1007F000808382B3809582BBF3CF83E090E008953D
:1008000082E090E00895843060F5683050F5423021
:1008100040F521E030E0062E01C0220F0A94EAF7ED
:10082000209501C0440F6A95EAF7823081F0833049
:1008300099F0813039F08AB32823242B2ABB90E029
:1008400080E0089587B32823242B27BBF8CF84B3F7
:100850002823242B24BBF3CF81B32823242B21BBB3
:10086000EECF83E090E00895843060F5683050F575
:10087000423040F521E030E0062E01C0220F0A94FC
:10088000EAF7209501C0440F6A95EAF7823081F0BB
:10089000833099F0813039F08BB32823242B2BBB84
:1008A00090E080E0089588B32823242B28BBF8CF5C
:1008B00085B32823242B25BBF3CF82B32823242BF5
:1008C00022BBEECF83E090E00895843000F56830DD
:1008D000F0F421E030E001C0220F6A95EAF782309F
:1008E00071F0833081F0813031F08BB328272BBB3E
:1008F00090E080E0089588B3282728BBF9CF85B31E
:10090000282725BBF5CF82B3282722BBF1CF83E070
:1009100090E00895FA018430E0F46830D0F4309724
:10092000D9F0823091F0833091F0813061F089B359
:1009300090E002C0959587956A95E2F78170808373
:1009400090E080E0089586B3F3CF83B3F1CF80B316
:10095000EFCF83E090E0089582E090E00895009763
:1009600009F46FC0FC0180E090819130B1F48130D6
:1009700089F19BB7823009F455C090649BBF95B74D
:100980009D7F95BF95B79E7F95BF9181913099F0DE
:1009900058F0923099F09330B9F08F5F32968330EF
:1009A00019F790E080E0089595B79E7F95BF95B7C1
:1009B000926095BFF2CF95B79160F8CF95B79160EF
:1009C00095BF95B79D7FF5CF95B79D7F95BF95B79F
:1009D0009E7FEFCF95B79D7F95BF95B79E7F95BFC3
:1009E0009181913079F040F0923099F09330B9F0E4
:1009F0009BB790689BBFD1CF95B7986095BF95B7CF
:100A00009B7F05C095B7946095BF95B7986095BFDB
:100A1000EFCF95B7977F95BF95B79460F8CF95B70F
:100A2000977FECCF90629BBF9181992331F09130F9
:100A300009F0B3CF94B7906402C094B79F7B94BF82
:100A4000ACCF82E090E00895833080F4813041F0B3
:100A5000823049F08BB780648BBF90E080E00895CE
:100A60008BB78068F9CF8BB78062F6CF83E090E0D8
:100A70000895833080F4813041F0823049F08BB7A3
:100A80008F7B8BBF90E080E008958BB78F77F9CF95
:100A90008BB78F7DF6CF83E090E00895643038F413
:100AA000843028F48130F9F028F08230A1F190E010
:100AB00080E0089585B7623079F0633091F061305D
:100AC00029F0826085BF85B78E7F04C0816085BFB5
:100AD00085B7826085BFEBCF8D7F85BF85B781608D
:100AE000F9CF8D7FEFCF85B7623071F0633089F039
:100AF000613029F0886085BF85B78B7FEBCF84603C
:100B000085BF85B78860E6CF877F85BF85B784605E
:100B1000E1CF877FF0CF662329F0613041F684B7BB
:100B2000806402C084B78F7B84BFC1CF833098F4C8
:100B30006115710569F090E0880F991FFC01E4527E
:100B4000FF4F718360838A529F4FFC015183408322
:100B500090E080E0089583E090E008951F920F9266
:100B60000FB60F9211242F933F934F935F936F9380
:100B70007F938F939F93AF93BF93EF93FF93E091F6
:100B8000DC00F091DD00309729F08091D600909143
:100B9000D7000995FF91EF91BF91AF919F918F91F0
:100BA0007F916F915F914F913F912F910F900FBE69
:100BB0000F901F9018951F920F920FB60F9211244D
:100BC0002F933F934F935F936F937F938F939F9355
:100BD000AF93BF93EF93FF93E091DE00F091DF00BE
:100BE000309729F08091D8009091D9000995FF9114
:100BF000EF91BF91AF919F918F917F916F915F9195
:100C00004F913F912F910F900FBE0F901F9018950D
:100C10001F920F920FB60F9211242F933F934F9371
:100C20005F936F937F938F939F93AF93BF93EF9354
:100C3000FF93E091E000F091E100309729F080917E
:100C4000DA009091DB000995FF91EF91BF91AF9190
:100C50009F918F917F916F915F914F913F912F91D4
:100C60000F900FBE0F901F9018958FB780688FBFA1
:100C700081E090E008958FB78F778FBF81E090E09B
:100C8000089583B78F7E83BF83B78F7D83BF83B77C
:100C90008F7B83BF83B7877F83BF89B7816089BF1D
:100CA00083B7816083BF83B7826083BF83B78B7F45
:100CB00083BF90E080E008958FB58E7F8FBD8FB5A4
:100CC0008D7F8FBD8EB5877F8EBD8EB58F7E8EBD9D
:100CD0008FB58F7B8FBD8FB58F778FBD8EB58E7F94
:100CE0008EBD8EB582608EBD8EB58B7F8EBD90E041
:100CF00080E008958F929F92AF92BF92CF92DF9241
:100D0000EF92FF9229B72E7F29BF0E94E60E2DEBAE
:100D100037E346E05BE30E94450E4B015C010E9415
:100D2000B70E6B017C010E94E60E9B01AC01C50170
:100D3000B4010E94D30D4B015C0120E030E0A90119
:100D40000E94400E8823A1F1A501940160E070E0AB
:100D500080E89FE30E94D30D20E030E040E853E4B8
:100D60000E94980F0E94B70E62BF8FEFC816D80678
:100D7000E806F80659F490E080E0FF90EF90DF90ED
:100D8000CF90BF90AF909F908F90089508B600FECF
:100D9000FDCF88B7816088BF81E0C81AD108E1081B
:100DA000F108E3CF08B600FEFDCF88B7816088BFA9
:100DB000C114D104E104F104A9F7DDCFCF92DF9291
:100DC000EF92FF92CF93DF93C2E0D0E0411551053F
:100DD00051F05093E9004093E8003093E5002093F0
:100DE000E400C1E0D0E00E94E60E2DEB37E346E0E0
:100DF0005BE30E94450E6B017C010E94B70E0E94CE
:100E0000E60E9B01AC01C701B6010E94D30D6B0138
:100E10007C0120E030E0A9010E94400E882389F087
:100E2000A701960160E070E080E89FE30E94D30D87
:100E300020E030E040E853E40E94980F0E94B70E93
:100E400062BF89B7816089BFCE01DF91CF91FF90EA
:100E5000EF90DF90CF900895009759F09093E900BC
:100E60008093E8007093E5006093E40081E090E0F7
:100E7000089582E090E00895892B19F081E090E0D8
:100E8000089582E090E008951CBE81E090E008950E
:100E90009DBD8CBD81E090E00895009741F02CB598
:100EA0003DB5FC013183208381E090E0089582E02C
:100EB00090E008958EB580648EBD89B7806289BF49
:100EC00090E080E00895823058F4811106C08EB51C
:100ED00080648EBD90E080E008958EB58F7BF9CF61
:100EE00083E090E0089589B7806289BF81E090E057
:100EF000089589B78F7D89BF81E090E008950097BC
:100F000059F09093E7008093E6007093E3006093BC
:100F1000E20081E090E0089582E090E0089500977B
:100F200041F026B537B5FC013183208381E090E0A4
:100F3000089582E090E008951F920F920FB60F92ED
:100F400011242F933F934F935F936F937F938F93CE
:100F50009F93AF93BF93EF93FF93E091E800F091DD
:100F6000E900309729F08091E4009091E50009951F
:100F7000FF91EF91BF91AF919F918F917F916F9171
:100F80005F914F913F912F910F900FBE0F901F9047
:100F900018951F920F920FB60F9211242F933F9323
:100FA0004F935F936F937F938F939F93AF93BF9371
:100FB000EF93FF930E949C07FF91EF91BF91AF9138
:100FC0009F918F917F916F915F914F913F912F9161
:100FD0000F900FBE0F901F9018951F920F920FB693
:100FE0000F9211242F933F934F935F936F937F93AF
:100FF0008F939F93AF93BF93EF93FF93E091E6009E
:10100000F091E700309729F08091E2009091E300A1
:101010000995FF91EF91BF91AF919F918F917F9132
:101020006F915F914F913F912F910F900FBE0F9055
:101030001F9018951F920F920FB60F9211240F90C8
:101040000FBE0F901F9018951F920F920FB60F9220
:1010500011240F900FBE0F901F9018951F920F92A2
:101060000FB60F9211240F900FBE0F901F9018957E
:1010700081B5886081BD81E090E0089588E181BDFF
:1010800011BC81E090E0089591B5987F91BD91B534
:10109000892B81BD81E090E0089540E064E083E029
:1010A0000E94030440E065E083E00E94030440E006
:1010B00066E083E00E94030440E067E083E00E9472
:1010C000030441E060E083E00E94030441E061E04A
:1010D00083E00E94030441E062E083E00E94030495
:1010E00041E063E083E00E94030441E064E083E0C8
:1010F0000E94340441E065E083E00E94340441E052
:1011000066E083E00E94340441E067E083E00E94EF
:10111000340441E060E083E00E94340441E061E097
:1011200083E00E94340441E062E083E00E943404E2
:1011300041E063E083E00E94340490E080E00895A1
:101140001F93CF93DF93EC018FEF8093ED0010920C
:10115000EC001FEFE091EC00E43030F08091ED0006
:10116000888390E080E041C0F0E0EB54FF4F40E026
:10117000608183E00E9434041092EB00E091EB0068
:10118000E43080F0E091EC00F0E0EB54FF4F41E000
:10119000608183E00E9434048091EC008F5F809333
:1011A000EC00D8CFF0E0EF54FF4F4AEE50E0608102
:1011B00083E00E948A048091EA00811124C080911A
:1011C000EB0090E02091EA00222399F02091EC00BE
:1011D000880F991F880F991F8F559F4F820F911D60
:1011E000FC018081888381E090E0DF91CF911F91A5
:1011F00008958F549F4F4AEE50E0FC01608183E0D8
:101200000E948A04DCCF1093ED008091EB008F5F89
:101210008093EB00B3CFCF93C82F40E067E080E02E
:101220000E94340440E066E080E00E94340440E024
:1012300065E080E00E9434044C2F417060E082E061
:101240000E943404C1FB442740F961E082E00E941F
:101250003404C2FB442740F962E082E00E94340477
:10126000C3FB442740F963E082E00E943404C4FBDE
:10127000442740F964E082E00E9434044C2F4295F8
:101280004695477065E082E00E94340440E066E0E5
:1012900082E00E94340440E067E082E00E9434046F
:1012A00041E065E080E00E9434048FE19EE4019714
:1012B000F1F700C0000040E065E080E0CF910C94C1
:1012C0003404CF93C82F40E066E080E00E943404ED
:1012D00040E065E080E00E943404C4FB442740F90C
:1012E00064E082E00E943404C5FB442740F965E0D5
:1012F00082E00E943404C6FB442740F966E082E0A5
:101300000E9434044C2F441F4427441F67E082E0AE
:101310000E9434044C2F417060E082E00E9434044B
:10132000C1FB442740F961E082E00E943404C2FB23
:10133000442740F962E082E00E943404C3FB442762
:1013400040F963E082E00E94340441E065E080E01F
:101350000E9434048FE19EE40197F1F700C0000081
:1013600040E065E080E00E9434048FE19EE4019754
:10137000F1F700C00000CF91089541E067E080E000
:101380000E94030441E066E080E00E94030441E023
:1013900065E080E00E94030441E064E082E00E9496
:1013A000030441E065E082E00E94030441E066E05E
:1013B00082E00E94030441E067E082E00E940304AF
:1013C0002FEB8AED90E0215080409040E1F700C083
:1013D000000041E060E082E00E94030441E061E03F
:1013E00082E00E94030441E062E082E00E94030484
:1013F00041E063E082E00E94030488E30E940B095D
:101400008FEC97E00197F1F700C000008FE00E9499
:101410000B098FEC97E00197F1F700C0000081E025
:101420000E940B098FE99FE00197F1F700C00000CF
:1014300086E00E940B0990E080E00895CF93C82FCA
:1014400041E067E080E00E9434048C2F0E94610933
:1014500090E080E0CF9108954F925F926F927F92DB
:101460008F929F92AF92BF92DF92EF92FF920F9373
:101470001F93CF93DF93CDB7DEB72A970FB6F894BB
:10148000DEBF0FBECDBF4B015C0141E067E080E0F5
:101490000E943404D12CCE0101967C018AE0482EB2
:1014A000512C612C712C0D2D10E00E0D1F1D81147F
:1014B0009104A104B104F9F401501109C8018E1975
:1014C0009F09019621F590E080E02A960FB6F894E6
:1014D000DEBF0FBECDBFDF91CF911F910F91FF9067
:1014E000EF90DF90BF90AF909F908F907F906F9024
:1014F0005F904F900895C501B401A30192010E942D
:101500008C0DF8016083D39449015A01CCCFF801C6
:101510008081805D0E946109CFCFCF93C82F40E0CA
:1015200067E080E00E9434048C2F0E94610990E003
:1015300080E0CF91089581E00E940B0990E080E067
:10154000089582E00E940B0990E080E008950F93D7
:101550001F93CF93DF93009759F1EC018C01045F47
:101560001F4F4B81698188810E9434048A818111D7
:1015700015C08B81813011F440E003C0811115C08A
:1015800041E0698188810E9434042496C017D10704
:1015900041F7DF91CF911F910F910895813029F488
:1015A0008B81813069F3882339F383E090E0EDCFBC
:1015B00082E090E0EECFFC01892B59F0828140E07F
:1015C000882319F0813041F441E0618180810C94DD
:1015D000340482E090E0089583E090E00895FC01F7
:1015E000892B59F0828141E0882319F0813041F440
:1015F00040E0618180810C94340482E090E00895A1
:1016000083E090E008950E94BF020C94EF010F93D5
:101610001F93CF93DF9300D0CDB7DEB71A82198224
:101620000097F1F08C01BE016F5F7F4F80E00E9458
:10163000F90169817A8144EF51E0649F9001659FCF
:10164000300D749F300D1124232F26952695F80117
:1016500020830F900F90DF91CF911F910F910895EC
:1016600082E090E0F6CF0F931F93CF93DF93009724
:1016700009F444C0EC018C010A5D1F4F41E069810F
:1016800088810E94030441E06B818A810E940304E7
:1016900041E06D818C810E94030441E06F818E8165
:1016A0000E94030441E0698588850E94030441E0AB
:1016B0006B858A850E94030441E06D858C850E94BC
:1016C00003042F85222339F06E85662321F041E043
:1016D000822F0E9403042989222339F06889662316
:1016E00021F041E0822F0E9403046396C017D107C6
:1016F00029F6DF91CF911F910F91089590E080E03E
:10170000F8CF0F931F93CF93DF936A3008F0D7C0C1
:10171000823008F0D4C0E62F082F10E093E1899FB3
:10172000E0011124CE58DF4F8A89811138C0F0E0E2
:10173000E754FF4F1081412F4170698188810E94D9
:10174000340411FB442740F96B818A810E943404E0
:1017500012FB442740F96D818C810E94340413FBF5
:10176000442740F96F818E810E94340414FB442782
:1017700040F9698588850E94340415FB442740F9A7
:101780006B858A850E94340416FB442740F96D85D9
:101790008C85DF91CF911F910F910C94340481308F
:1017A00009F094C0F0E0E754FF4FC08141E0C1115F
:1017B00040E083E1809FF001819FF00D1124EE58FD
:1017C000FF4F618180810E94340441E08C2F869517
:1017D00009F040E083E1809FF001819FF00D11242A
:1017E000EE58FF4F638182810E94340441E08C2FC8
:1017F0008695869509F040E083E1809FF001819F06
:10180000F00D1124EE58FF4F658184810E9434044D
:1018100041E08C2F86958695869509F040E083E11E
:10182000809FF001819FF00D1124EE58FF4F6781DA
:1018300086810E94340441E08C2F82958F7009F0DC
:1018400040E083E1809FF001819FF00D1124EE586C
:10185000FF4F618580850E94340441E08C2F829582
:101860008695877009F040E083E1809FF001819FB9
:10187000F00D1124EE58FF4F638582850E943404D9
:1018800041E08C2F829586958695837009F040E023
:1018900023E1209FC001219F900D11248C010E583F
:1018A0001F4FF801658584850E9434044C2F4095B4
:1018B000441F4427441FF801608981896ACF83E06F
:1018C00090E0DF91CF911F910F91089584E090E017
:1018D000F8CF823098F493E1899FF0011124EE58FB
:1018E000FF4F6685662351F0828941E0882319F015
:1018F000813039F440E087850C94340483E090E033
:10190000089584E090E00895823098F493E1899FEF
:10191000F0011124EE58FF4F6685662351F082894D
:1019200040E0882319F0813039F441E087850C9438
:10193000340483E090E0089584E090E008958230DC
:1019400098F493E1899FF0011124EE58FF4F6089CC
:10195000662351F0828941E0882319F0813039F4FF
:1019600040E081890C94340483E090E0089584E0A1
:1019700090E00895823098F493E1899FF00111245A
:10198000EE58FF4F6089662351F0828940E088233A
:1019900019F0813039F441E081890C94340483E0FA
:1019A00090E0089584E090E00895CF93DF93823033
:1019B00008F066C093E1899FE0011124CE58DF4F03
:1019C0008A8981112AC040E0698188810E9434049B
:1019D00040E06B818A810E94340440E06D818C81FB
:1019E0000E94340440E06F818E810E94340440E004
:1019F000698588850E94340440E06B858A850E9451
:101A0000340440E06D858C850E943404688940E090
:101A1000611131C0DF91CF9108958130A1F541E08E
:101A2000698188810E94340441E06B818A810E942F
:101A3000340441E06D818C810E94340441E06F8167
:101A40008E810E94340441E0698588850E943404B7
:101A500041E06B858A850E94340441E06D858C8568
:101A60000E94340441E0688989890E9434046889AD
:101A7000662381F241E08989DF91CF910C9434048F
:101A800083E090E0C7CF84E090E0C4CF0F931F9332
:101A9000CF93DF930097B9F0EC018C01075F1F4FE4
:101AA00040E0698188810E9403044A8169818881BC
:101AB0000E9434042396C017D10791F7DF91CF918C
:101AC0001F910F91089582E090E0F8CFAB0100974D
:101AD00039F0672B29F0FC01618180810C948A0424
:101AE00082E090E008950E9491010E94E501FFCFFD
:101AF000AA1BBB1B51E107C0AA1FBB1FA617B70734
:101B000010F0A61BB70B881F991F5A95A9F780954F
:101B10009095BC01CD010895052E97FB1EF400940D
:101B20000E94A30D57FD07D00E94B10D07FC03D002
:101B30004EF40C94A30D50954095309521953F4F50
:101B40004F4F5F4F089590958095709561957F4FA9
:101B50008F4F9F4F0895EE0FFF1F0590F491E02DDA
:101B60000994A1E21A2EAA1BBB1BFD010DC0AA1FDE
:101B7000BB1FEE1FFF1FA217B307E407F50720F0F6
:101B8000A21BB30BE40BF50B661F771F881F991F71
:101B90001A9469F760957095809590959B01AC01BA
:101BA000BD01CF0108955058BB27AA270E94EB0D15
:101BB0000C945E0F0E94500F38F00E94570F20F0D7
:101BC00039F49F3F19F426F40C944D0F0EF4E09570
:101BD000E7FB0C94470FE92F0E946F0F58F3BA17D9
:101BE000620773078407950720F079F4A6F50C9433
:101BF000910F0EF4E0950B2EBA2FA02D0B01B90119
:101C000090010C01CA01A0011124FF27591B99F072
:101C1000593F50F4503E68F11A16F040A22F232F7E
:101C2000342F4427585FF3CF469537952795A795CE
:101C3000F0405395C9F77EF41F16BA0B620B730B75
:101C4000840BBAF09150A1F0FF0FBB1F661F771FE6
:101C5000881FC2F70EC0BA0F621F731F841F48F49B
:101C6000879577956795B795F7959E3F08F0B0CF24
:101C70009395880F08F09927EE0F9795879508950B
:101C80000E94230F08F481E008950E94590E0C94DD
:101C90005E0F0E94570F58F00E94500F40F029F439
:101CA0005F3F29F00C94470F51110C94920F0C9444
:101CB0004D0F0E946F0F68F39923B1F3552391F3F1
:101CC000951B550BBB27AA2762177307840738F0AB
:101CD0009F5F5F4F220F331F441FAA1FA9F335D008
:101CE0000E2E3AF0E0E832D091505040E695001CBC
:101CF000CAF72BD0FE2F29D0660F771F881FBB1F76
:101D0000261737074807AB07B0E809F0BB0B802D53
:101D1000BF01FF2793585F4F3AF09E3F510578F07F
:101D20000C94470F0C94920F5F3FE4F3983ED4F36A
:101D3000869577956795B795F7959F5FC9F7880F53
:101D4000911D9695879597F90895E1E0660F771FA5
:101D5000881FBB1F621773078407BA0720F0621B36
:101D6000730B840BBA0BEE1F88F7E09508950E9461
:101D7000770F88F09F5798F0B92F9927B751B0F097
:101D8000E1F0660F771F881F991F1AF0BA95C9F7FF
:101D900014C0B13091F00E94910FB1E008950C94FD
:101DA000910F672F782F8827B85F39F0B93FCCF3B0
:101DB000869577956795B395D9F73EF4909580957C
:101DC000709561957F4F8F4F9F4F0895E89409C09C
:101DD00097FB3EF490958095709561957F4F8F4F5E
:101DE0009F4F9923A9F0F92F96E9BB279395F69574
:101DF000879577956795B795F111F8CFFAF4BB0FF2
:101E000011F460FF1BC06F5F7F4F8F4F9F4F16C055
:101E1000882311F096E911C0772321F09EE8872FDF
:101E2000762F05C0662371F096E8862F70E060E09B
:101E30002AF09A95660F771F881FDAF7880F969514
:101E4000879597F90895990F0008550FAA0BE0E8B8
:101E5000FEEF16161706E807F907C0F0121613066C
:101E6000E407F50798F0621B730B840B950B39F4AC
:101E70000A2661F0232B242B252B21F408950A2612
:101E800009F4A140A6958FEF811D811D089597F952
:101E90009F6780E870E060E008959FEF80EC089510
:101EA00000240A9416161706180609060895002439
:101EB0000A9412161306140605060895092E0394B3
:101EC000000C11F4882352F0BB0F40F4BF2B11F427
:101ED00060FF04C06F5F7F4F8F4F9F4F089557FD86
:101EE0009058440F551F59F05F3F71F04795880F88
:101EF00097FB991F61F09F3F79F08795089512161F
:101F000013061406551FF2CF4695F1DF08C01616CA
:101F100017061806991FF1CF86957105610508947B
:101F20000895E894BB2766277727CB0197F9089592
:101F30000E94AB0F0C945E0F0E94500F38F00E946D
:101F4000570F20F0952311F00C94470F0C944D0F70
:101F500011240C94920F0E946F0F70F3959FC1F3A0
:101F6000950F50E0551F629FF001729FBB27F00D47
:101F7000B11D639FAA27F00DB11DAA1F649F66279C
:101F8000B00DA11D661F829F2227B00DA11D621FEB
:101F9000739FB00DA11D621F839FA00D611D221FA5
:101FA000749F3327A00D611D231F849F600D211D89
:101FB000822F762F6A2F11249F5750409AF0F1F00C
:101FC00088234AF0EE0FFF1FBB1F661F771F881F75
:101FD00091505040A9F79E3F510580F00C94470F57
:101FE0000C94920F5F3FE4F3983ED4F38695779577
:101FF0006795B795F795E7959F5FC1F7FE2B880F1B
:0E200000911D9695879597F90895F894FFCF56
:10200E0001010001000000000100000101000002BA
:10201E000100010001010102010301040105010695
:10202E000403070100010001010102010301040183
:10203E00050106010307010003030003000003016D
:10204E00003738392F3435362A3132332D43303D6F
:10205E002B04050607000102033F065B4F666D7DEC
:04206E00077F6F0079
:00000001FF
